:020000040000FA
:100000000C94A8070C94D9070C94D9070C94D90721
:100010000C94D9070C94D9070C94D9070C94D907E0
:100020000C94D9070C94D9070C94D9070C94D907D0
:100030000C94D9070C94491D0C94D9070C94D9073A
:100040000C94D9070C94D9070C94D9070C94D907B0
:100050000C94D9070C94D9070C94D9070C94FF1C65
:100060000C94D9070C94C91C0C949F1C0C94D907B0
:100070000C94D9070C94D9070C94D9070C94D90780
:100080000C94D9070C94D9070C94D9070C94D90770
:100090000C94691C0C943F1C0C94D9070C94D11E31
:1000A0000C94D9070C94D9070C94D9070C94D90750
:1000B0000C94D9070C94D9070C94D9070C94D90740
:1000C0000C94D9070C94D9070C94D9070C94D90730
:1000D0000C94D9070C94D9070C94D9070C94D90720
:1000E0000C94D9070C94B5090C9499090C949D09AA
:1000F0000C9402080C9493090C94B1090C94410FD0
:100100000C9435180C94B9090C94E51A0C94E21A65
:100110000C947A160C9403080C9459130C94E5195A
:100120000C94911A0C944E0E0C9453080C94A30842
:100130000C9446130C94D52D0C9441180C94AB09D7
:100140000C94A8150C9484090C9430080C94BF09E5
:100150000C94C4100C94FA200C9425180C9461088B
:100160000C94D9160C94F0080C944D180C94FF10B4
:100170000C9490090C9488090C948C090C94A70990
:100180000C943F080C94C3090C946D090C947209EB
:100190000C94A30900000000003E5B4F5B3E3E6BE9
:1001A0004F6B3E1C3E7C3E1C183C7E3C181C577D11
:1001B000571C1C5E7F5E1C00183C1800FFE7C3E75D
:1001C000FF0018241800FFE7DBE7FF30483A060E6F
:1001D0002629792926407F050507407F05253F5AB6
:1001E0003CE73C5A7F3E1C1C08081C1C3E7F142226
:1001F0007F22145F5F005F5F06097F017F006689D1
:10020000956A606060606094A2FFA29408047E0416
:100210000810207E201008082A1C08081C2A08083C
:100220001E101010100C1E0C1E0C30383E383006FC
:100230000E3E0E06000000000000005F00000007F8
:10024000000700147F147F14242A7F2A1223130826
:10025000646236495620500008070300001C224102
:10026000000041221C002A1C7F1C2A08083E0808A6
:100270000080703000080808080800006060002056
:10028000100804023E5149453E00427F4000724939
:100290004949462141494D331814127F10274545DD
:1002A00045393C4A494931412111090736494949F3
:1002B00036464949291E0000140000004034000061
:1002C00000081422411414141414004122140802CA
:1002D000015909063E415D594E7C1211127C7F493D
:1002E0004949363E414141227F4141413E7F494992
:1002F00049417F090909013E414151737F080808BE
:100300007F00417F41002040413F017F081422418E
:100310007F404040407F021C027F7F0408107F3EE8
:100320004141413E7F090909063E4151215E7F0955
:10033000192946264949493203017F01033F4040BC
:10034000403F1F2040201F3F4038403F63140814A7
:100350006303047804036159494D43007F414141DF
:100360000204081020004141417F040201020440C0
:1003700040404040000307080020545478407F2844
:100380004444383844444428384444287F3854543A
:10039000541800087E090218A4A49C787F0804045D
:1003A0007800447D40002040403D007F10284400FC
:1003B00000417F40007C047804787C08040478388D
:1003C00044444438FC1824241818242418FC7C08BD
:1003D000040408485454542404043F44243C40403A
:1003E000207C1C2040201C3C4030403C44281028ED
:1003F000444C9090907C4464544C44000836410036
:100400000000770000004136080002010204023CAF
:100410002623263C1EA1A161123A4040207A38547E
:1004200054555921555579412254547842215554F7
:10043000784020545579400C1E527212395555554A
:1004400059395454545939555454580000457C4135
:100450000002457D420001457C407D1211127DF075
:10046000282528F07C545545002054547C547C0A9F
:10047000097F4932494949323A4444443A324A4868
:1004800048303A4141217A3A42402078009DA0A06C
:100490007D3D4242423D3D4040403D3C24FF2424BE
:1004A000487E4943662B2FFC2F2BFF0929F620C0DD
:1004B000887E090320545479410000447D4130482E
:1004C000484A32384040227A007A0A0A727D0D1971
:1004D000317D2629292F28262929292630484D40D3
:1004E00020380808080808080808382F10C8ACBACF
:1004F0002F102834FA00007B000008142A1422224E
:10050000142A14085500550055AA55AA55AAFF5596
:10051000FF55FF000000FF00101010FF001414141E
:10052000FF001010FF00FF1010F010F0141414FC66
:10053000001414F700FF0000FF00FF1414F404FC83
:10054000141417101F10101F101F1414141F001064
:100550001010F0000000001F101010101F101010DD
:1005600010F010000000FF101010101010101010EC
:10057000FF10000000FF140000FF00FF00001F102C
:10058000170000FC04F414141710171414F404F4E6
:100590000000FF00F714141414141414F700F714D7
:1005A0001414171410101F101F141414F414101026
:1005B000F010F000001F101F0000001F14000000CA
:1005C000FC140000F010F01010FF10FF141414FFC2
:1005D000141010101F00000000F010FFFFFFFFFFBD
:1005E000F0F0F0F0F0FFFFFF0000000000FFFF0F51
:1005F0000F0F0F0F3844443844FC4A4A4A347E02F5
:10060000020606027E027E02635549416338444475
:100610003C04407E201E2006027E020299A5E7A52A
:10062000991C2A492A1C4C7201724C304A4D4D309B
:100630003048784830BC625A463D3E494949007EC0
:100640000101017E2A2A2A2A2A44445F4444405157
:100650004A444040444A51400000FF0103E080FF0B
:10066000000008086B6B083612362436060F090F97
:1006700006000018180000001010003040FF0101B3
:10068000001F01011E00191D1712003C3C3C3C00DC
:100690000000000000002100240027002A002D0097
:1006A0003000330001010000040107010A010000CD
:1006B0000A0B02090C0D0E080703040100000000DC
:1006C000000000000000000000000000000000002A
:1006D00000000000000000000000121110000000E7
:1006E000000000000000000000000000000000000A
:1006F0000000000011007F96290001007F9628006D
:100700003A0155C0021010C10141C50400228040C9
:10071000360168B00100B102B011B40102B60302A3
:10072000023BB701C63A0155F704A9512C82B70123
:10073000C6E808408A00002919A533C0020D0DC182
:10074000024300C20100C50400480048B40100B6DD
:100750000302023BE00F0F211C0B0E0849983809D9
:100760001103141000E10F0F2F2B0C0E06477637E4
:10077000071104231E00B00100B30402000000B4FE
:100780000100D003074218D103000710D202010272
:10079000D3020102D4020102C005123B000211C1C2
:1007A00003101088C50103C60102C80C003236458B
:1007B0000616377577540C00CC0100F603010100D2
:1007C000CF03008130ED0464031281E803851078C3
:1007D000CB05392C003402F70120EA020000B001F9
:1007E00000B102001BB40100C00121C10111C5020A
:1007F0003F3CC701B5360148F20100260101E00F78
:100800000F26240B0E0954A8460C17090F0700E108
:100810000F00191B0410072A473903060630380F4A
:10082000360100B80101C0010EB00100C104101072
:100830000202C006003500000102C50104D2020117
:1008400004CA0100EA0180B903FF83577F967F96AF
:10085000B60125C0065050013C1E08B407024000F6
:100860002A2A0D787F01F20B1616030808080810D3
:10087000041616FD03110235B2050C0C003333B714
:100880000135BB012BC00104C20201FFC30111C429
:100890000120C6010FD002A4A1E00ED000050E1564
:1008A0000D3743470915121619E10ED000050D0C3E
:1008B000062D44400E1C1816193A01557F0A0600F1
:1008C0000700B1020012B40102B60400202700CADA
:1008D0000101CB0103C001137F14C501CCC6010087
:1008E000C70104C80103CC0106CD011CF90215158E
:1008F000F3030A020AF603011000FA00FB00B0013C
:1009000003E2013FC00122E20100B00100C0010A80
:10091000B001000000000000000000000000000026
:10092000000000FFFF0F000004006208000808003C
:1009300003000C01030B5A020306090303171004FA
:1009400003002305030017060309630703090C08C6
:10095000030C1009033222100016001100010112CD
:100960000000001300010000013003010137020301
:1009700001000D800200610201B0C1FFFF320001E1
:100980000000010200000103003010090001000C0A
:10099000000000900000800F000000100200001115
:1009A00002EF001202000013028F01000500000197
:1009B00005000002055F000104010004040000FFBF
:1009C000FF320007000001FFFF32000002000001BB
:1009D0000200000000000000000000000000000015
:1009E000000100A4000100FFFF0A006000002708CA
:1009F00000080830001402310015373200040633B5
:100A000000160E3400112235000015360007853718
:100A1000000714380003143900200090001500105E
:100A200000100411003702290046002A0046000782
:100A30000000001200890113000011FFFF96001250
:100A400000B901010000010200000203003010099A
:100A50000001000A0000000D0000000E00300061DF
:100A60000001006A00000080000000810000008298
:100A7000005F009200000193000107FFFF50000794
:100A8000000001E500F0780100000102000002030F
:100A900000301004000000050000000800070209F3
:100AA0000000000A0000000C0000000D0000000F14
:100AB00000000010000000110007001200000013E9
:100AC00000000007000100FFFFC800100090161191
:100AD000002702FFFF320012000D00FFFF3200135B
:100AE00000001229000A002B000D00FFFF32002039
:100AF000000000210000003000000031000404323A
:100B000000030035000504360008083700070438E4
:100B1000000303390007073C0004053D0008086096
:100B2000000027610001006A0000008000000081D1
:100B300000000082000000830000008400000085A7
:100B4000000000900010009200000007003301E553
:100B50000000800000010001000001020000070306
:100B60000030100400000008000202090000000A22
:100B70000000000C0000000D0000000F000000103D
:100B8000000000110007001200000013000000FF29
:100B9000FF32001000B01711000700FFFF0A00121B
:100BA000003A01FFFF0A001300001A29000C00FFA1
:100BB000FF0A003000000031000505320004003556
:100BC000000600360007073700050138000200392B
:100BD0000007073C0004073D000708600000A7610C
:100BE0000001006A000000210000002000000080D9
:100BF00000000081000000820000008300000084EB
:100C0000000000850000009000100092000000939A
:100C100000030095001001970000009800000007F5
:100C2000007301FFFF320001000001020000070312
:100C300000301008000203090000000A000800103C
:100C4000000000110005001200000013000000FF6A
:100C5000FF64001000B012FFFF320011000700FF18
:100C6000FF320012008C001300001729002000FF43
:100C7000FF32003000000031000601320001013572
:100C8000000601360003023700000038000707396C
:100C90000004023C0006013D000301600000A76162
:100CA0000001009000300007003301FFFF32001503
:100CB0000030009A001000110020001000283412AB
:100CC00000020013003810FFFF280012001200FF7E
:100CD000FF28001000203413004530FFFF4600308D
:100CE0000000003100020432000703330004033423
:100CF00000040035000104360007073700050338FB
:100D00000010063900100601000001020000030374
:100D1000003010080008080A000800600000276181
:100D200000010090003E019200000193000001A02C
:100D3000000030A300100007000100070021000799
:100D4000002300070033000700330111001A0012CE
:100D500000213113006C001400494210000008FF0C
:100D6000FF0A0011001A01FFFF0A0011001A03FF19
:100D7000FF0A0011001A07FFFF0A0011001A0FFFF7
:100D8000FF0A0011003A0FFFFF1E000100280102B8
:100D90000000010300301007001210080003030BCD
:100DA0000000110C0000000F000118150020005079
:100DB00000010151000306520008045300000054D2
:100DC00000050655000604560003035700030358A8
:100DD0000010005900001007001200FFFF28000754
:100DE000001300070017000102102020080810203F
:100DF00040102040800201020108040201010204A7
:100E00000810204080804020100804020180040265
:100E100001804020100804020108040201010204BC
:100E200008102040800102040810204080000022A9
:100E300000250028002B002E0031003400020100A4
:100E400000050108010B010505050507050808084F
:100E500008020202020A0A0808040404040101014B
:100E60000101010101030303030303030304070753
:100E7000070C0C0C0C0C0C0C0C02020202060606F1
:100E800006060606060B0B0B0B0B0B0B0B01F00FEC
:100E900080061C3860180660181001800820018048
:100EA000044000000240000002C000080380000867
:100EB000018000180180001C0180001400800014D3
:100EC000008000140040101200401012007E1F230A
:100ED000FE0331A00401A0A00C00A0A0080060E067
:100EE000100020602006004060030040C001800127
:100EF0008000C003000060060000300C00000810F5
:100F000000000660000003C0000001800003C0F084
:100F100006718C0C1B06180E02100C031004011035
:100F2000040110400110400110C00308880208B8F5
:100F300004FF370801301801903000C0600060C025
:100F4000003180001B00000E00000400FA20D52DA7
:100F500011241FBECFEFD1E2DEBFCDBF00E00CBF3A
:100F600012E0A0E0B2E0E4EEF6E600E00BBF02C063
:100F700007900D92A23AB107D9F725E0A2EAB2E0B4
:100F800001C01D92A432B207E1F717E0C7EAD7E02B
:100F900000E006C021970109802FFE010E94343134
:100FA000C63AD10780E00807A9F70E9402220C94F4
:100FB00060330C940000FC01A089B18982E08C931D
:100FC000A485B5851C92A685B7858FEC8C93108E71
:100FD000A489B58986E08C93A289B3898C918061BC
:100FE0008C93A289B3898C9188608C93A289B389F0
:100FF0008C9180688C930288F389E02D80818F7DAD
:10100000808308950895AF92BF92CF92DF92EF92BE
:10101000FF920F931F93CF93DF936C017B018B01A2
:10102000040F151FEB015E01AE18BF08C017D107F2
:1010300059F06991D601ED91FC910190F081E02D7C
:10104000C6011995892B79F7C501DF91CF911F91C1
:101050000F91FF90EF90DF90CF90BF90AF900895E9
:10106000FC01538D448D252F30E0842F90E0821BAE
:10107000930B541710F0CF96089501970895FC0133
:10108000918D828D981761F0A28DAE0FBF2FB11D8B
:101090005D968C91928D9F5F9F73928F90E00895E3
:1010A0008FEF9FEF0895FC01918D828D981731F09D
:1010B000828DE80FF11D858D90E008958FEF9FEFF1
:1010C0000895FC01918D228D892F90E0805C9F4FC7
:1010D000821B91098F73992708958FE393E00E94F3
:1010E000610821E0892B09F420E0822F08958CED1E
:1010F00093E00E94610821E0892B09F420E0822F0F
:101100000895FC01A48DA80FB92FB11DA35ABF4F9C
:101110002C91848D90E001968F739927848FA689F6
:10112000B7892C93A089B1898C91837080648C934A
:10113000938D848D981306C00288F389E02D8081F9
:101140008F7D80830895EF92FF920F931F93CF932B
:10115000DF93EC0181E0888F9B8D8C8D98131AC0F2
:10116000E889F989808185FF15C09FB7F894EE89D9
:10117000FF896083E889F989808183708064808336
:101180009FBF81E090E0DF91CF911F910F91FF9081
:10119000EF900895F62E0B8D10E00F5F1F4F0F7329
:1011A0001127E02E8C8D8E110CC00FB607FCFACFE4
:1011B000E889F989808185FFF5CFCE010E948108F9
:1011C000F1CFEB8DEC0FFD2FF11DE35AFF4FF082B5
:1011D0009FB7F8940B8FEA89FB8980818062CFCF1B
:1011E000CF93DF93EC01888D8823B9F0AA89BB895E
:1011F000E889F9898C9185FD03C0808186FD0DC049
:101200000FB607FCF7CF8C9185FFF2CF808185FF69
:10121000EDCFCE010E948108E9CFDF91CF910895F3
:1012200080E090E0892B29F00E94770881110E94CC
:10123000000080E090E0892B29F00E946D08811168
:101240000E94000080E090E0892B49F080E090E06F
:10125000892B29F00E94000081110E94000080E08B
:1012600090E0892B49F080E090E0892B29F00E94E2
:10127000000081110C9400000895282F30E0F9013E
:10128000E255F94F9491F901E951F24F4491295BEC
:10129000314FF9012491222309F435C0992311F12A
:1012A00091509231F8F4E92FF0E08827E55AF64F93
:1012B0008F4F0C9434318C0990096D098409880989
:1012C0007209930999099D09A309A709AB09B109F5
:1012D000B5097209B909BF09C309809180008F77E8
:1012E00080938000E22FF0E0EE0FFF1FE35DF14FEF
:1012F000A591B4918FB7F894EC91611148C04095D5
:101300004E234C938FBF0895809180008F7DE8CF4E
:1013100080918000877FE4CF84B58F7784BDE2CF52
:1013200084B58F7DFBCF8091B0008F778093B00024
:10133000D9CF8091B0008F7DF9CF809190008F77C9
:1013400080939000CFCF809190008F7DF9CF8091D6
:101350009000877FF5CF8091A0008F778093A000C9
:10136000C1CF8091A0008F7DF9CF8091A000877FB1
:10137000F5CF809120018F7780932001B3CF8091AA
:1013800020018F7DF9CF80912001877FF5CF4E2BF3
:10139000B8CFCF93DF9390E0FC01E951F24F249155
:1013A000895B914FFC0184918823D1F090E0880FF4
:1013B000991FFC01EC56F94FA591B491FC01E35D36
:1013C000F14FC591D49161110EC09FB7F8948C91E3
:1013D000E22FE0958E238C932881E223E8839FBF40
:1013E000DF91CF9108958FB7F894EC91E22BEC93B5
:1013F0008FBFF6CF863308F0865320917B00982F5D
:101400009870277F922B90937B00877080648093E5
:101410007C0080917A00806480937A0080917A00C9
:1014200086FDFCCF809178009091790008953FB7B8
:10143000F8948091390390913A03A0913B03B091C5
:101440003C0326B5A89B05C02F3F19F00196A11DAE
:10145000B11D3FBFBA2FA92F982F8827BC01CD01FE
:10146000620F711D811D911D42E0660F771F881F5D
:10147000991F4A95D1F708958F929F92AF92BF928C
:10148000CF92DF92EF92FF926B017C010E94170ACC
:101490004B015C01C114D104E104F104B9F00E94D4
:1014A000170A681979098A099B09683E7340810502
:1014B000910580F321E0C21AD108E108F10888EE15
:1014C000880E83E0981EA11CB11CE4CFFF90EF9022
:1014D000DF90CF90BF90AF909F908F9008950F9323
:1014E0001F93CF93DF93EC018B01FE018491319622
:1014F000649122968F3799F470E090E080E00E942A
:101500003C0A60E070E06E5F7F4F061B170B101601
:1015100011065CF3DF91CF911F910F9108958B9885
:101520008A9890910201977890930201A5989EB1B4
:10153000977C9EB94091020190E09C0155E0220FFA
:10154000331F5A95E1F72076242B209302014EB1E8
:101550009C01220F331F220F331F2073242B2EB91F
:1015600044B39C01220F331F2072242B24BB4EB1A5
:101570009C0135952795359527952870242B2EB9F4
:1015800020910201A3E095958795AA95E1F78871CE
:10159000822B809302018998899A50E040E0461797
:1015A00008F045C0FE01E40FF51FE4918A9A80918E
:1015B0000201877880930201A5988EB1877C8EB94D
:1015C000709102018E2F90E09C01E5E0220F331F05
:1015D000EA95E1F72076272B209302017EB19C014A
:1015E000220F331F220F331F2073272B2EB974B302
:1015F0009C01220F331F2072272B24BB7EB19C013C
:1016000035952795359527952870272B2EB9E0918C
:10161000020123E0959587952A95E1F788718E2B35
:10162000809302018998899A4F5F5F4FB8CFC60FA8
:10163000D11D8B9A67CF8B988A98209102012778C9
:1016400020930201A5982EB1277C2EB9709102013A
:10165000292F30E0F901A5E0EE0FFF1FAA95E1F771
:10166000E076E72BE09302017EB1F901EE0FFF1F58
:10167000EE0FFF1FE073E72BEEB974B3F901EE0F25
:10168000FF1FE072E72BE4BB7EB1F901F595E7950A
:10169000F595E795E870E72BEEB970910201E3E06C
:1016A00035952795EA95E1F72871272B20930201BC
:1016B0008998899A20910201277820930201A598A0
:1016C0002EB1277C2EB9709102019C01F5E0880FA4
:1016D000991FFA95E1F78076872B809302017EB1FE
:1016E000C901880F991F880F991F8073872B8EB9A6
:1016F00074B3C901880F991F8072872B84BB7EB198
:10170000C90195958795959587958870872B8EB992
:1017100080910201F3E035952795FA95E1F728715C
:10172000282B209302018998899A8A9AFA0161509C
:1017300008F43EC081919091020197789093020144
:10174000A5989EB1977C9EB94091020190E09C01C2
:1017500055E0220F331F5A95E1F72076242B209372
:1017600002014EB19C01220F331F220F331F207341
:10177000242B2EB944B39C01220F331F2072242B3B
:1017800024BB4EB19C01359527953595279528703A
:10179000242B2EB92091020133E0959587953A9537
:1017A000E1F78871822B809302018998899ABFCFD3
:1017B0008B9A08958B988A98E2E0F1E0208127784F
:1017C0002083A5982EB1277C2EB9A081292F30E047
:1017D000A901B5E0440F551FBA95E1F740764A2BB1
:1017E0004083AEB1A901440F551F440F551F4073EC
:1017F0004A2B4EB9A4B3A901440F551F40724A2B7E
:1018000044BBAEB1A901559547955595479548708C
:101810004A2B4EB9408153E0359527955A95E1F70B
:101820002871242B20838998899A20812778208306
:10183000A5982EB1277C2EB940819C01A5E0880F88
:10184000991FAA95E1F78076842B80834EB1C90158
:10185000880F991F880F991F8073842B8EB944B30A
:10186000C901880F991F8072842B84BB4EB1C901B6
:1018700095958795959587958870842B8EB98081ED
:10188000B3E035952795BA95E1F72871282B208389
:101890008998899A8A9A808187788083A5988EB161
:1018A000877C8EB94081872F90E09C0155E0220F04
:1018B000331F5A95E1F72076242B20834EB19C01EB
:1018C000220F331F220F331F2073242B2EB944B352
:1018D0009C01220F331F2072242B24BB4EB19C018C
:1018E00035952795359527952870242B2EB920817D
:1018F000A3E095958795AA95E1F78871822B80835F
:101900008998899A808187788083A5988EB1877C11
:101910008EB94081CB019B01B5E0220F331FBA95F0
:10192000E1F72076242B20834EB19B01220F331F39
:10193000220F331F2073242B2EB944B39B01220F97
:10194000331F2072242B24BB4EB19C013595279563
:10195000359527952870242B2EB92081A3E09595E5
:101960008795AA95E1F78871822B80838998899A57
:101970008B9A089581E080933E03E1E0F1E080815D
:10198000886780839D9A8DB188638DB9809A819A8A
:10199000829A839A849A8B9A889A899A8C9A62E31B
:1019A00070E080E090E00E943C0A8C9864E670E071
:1019B00080E090E00E943C0A8C9A64E670E080E04F
:1019C00090E00E943C0A70E060E080EB90E00C94B4
:1019D000DA0BEF92FF920F931F93CF93DF93EC01FB
:1019E000E62E80913E03811102C00E94BA0C8B98B2
:1019F0008A9880910201877880930201A5988EB120
:101A0000877C8EB980910201809302018EB18EB9DC
:101A100084B384BB8EB18EB98091020180930201A0
:101A20008998899A80910201877880930201A5980C
:101A30008EB1877C8EB920910201CE0115E0880F0E
:101A4000991F1A95E1F78076822B809302012EB1BF
:101A5000CE01880F991F880F991F8073822B8EB932
:101A600024B3CE01880F991F8072822B84BB2EB1C4
:101A7000CE0195958795959587958870822B8EB91F
:101A80008091020153E0D595C7955A95E1F7C87149
:101A9000C82BC09302018998899A8A9A8091010182
:101AA0008778809301019D988DB1877C8DB961E025
:101AB00070E080E090E00E943C0A61E070E080E02D
:101AC00090E00E943C0A889A889888988898D091DB
:101AD00000011CB102B3CCB1F0900001889A61E022
:101AE00070E080E090E00E943C0A889A889888988C
:101AF0008898409100015CB1E2B39CB1F091000183
:101B0000889AEA946FEFE612D8CF889A8B9A8091E0
:101B100001018867809301019D9A8DB188638DB919
:101B200084E0C89F900111242072332788E0F89E3A
:101B3000B0011124607C7727262B602F70E075950B
:101B4000679560717727262B612F70E075956795F3
:101B5000759567956C707727262B6D2F70E0B5E033
:101B600075956795BA95E1F763707727262B64E042
:101B7000969FC0011124807298E0F99FB001112452
:101B8000607C862BE695E0718E2B569556955C70A1
:101B9000852B50E0C5E055954795CA95E1F7437010
:101BA000842B922FDF91CF911F910F91FF90EF9097
:101BB00008950F931F93CF93DF938C0160E00E94F1
:101BC000E90CEC0161E0C8010E94E90C8C01BE0146
:101BD00090E080E0CB017727662730E020E0602BA3
:101BE000712B822B932BDF91CF911F910F91089531
:101BF000FF920F931F93CF93DF938C0160E00E94BD
:101C0000E90CEC0161E0C8010E94E90CF82E62E0E9
:101C1000C8010E94E90CAE0170E060E0742F6627F5
:101C20005527442700E030E020E0402B5F29622B5D
:101C3000732B292F30E0C901B0E0A0E08A019B019D
:101C4000082B192B2A2B3B2BC901B801DF91CF910F
:101C50001F910F91FF9008950F931F93CF93DF93E0
:101C6000EC018B01FE0185919491FE013296249640
:101C7000659174918F3F980771F490E080E00E9425
:101C80003C0A045011091016110664F3DF91CF913C
:101C90001F910F9108950E94DA0BF3CFFC01262FBC
:101CA000358D868D82958170982F9627692F70E0EB
:101CB00072A361A330FF0CC0821307C080E290E0E2
:101CC00050E040E060E00C941B0B81E290E0F8CF24
:101CD000878D90A1833927E7920741F058F4843526
:101CE00021E0920791F080329445C1F4626081E076
:101CF00094E012C0863223E99207C1F3893025EBC4
:101D00009207A1F38532924949F4660F771F660F57
:101D1000771F636187E090E00C94DA0B81E690E036
:101D2000FBCF8F929F92AF92BF92CF92DF92EF92B2
:101D3000FF920F931F93CF93DF9300D01F92CDB7E5
:101D4000DEB77C014B015A016901FC01878D90A12E
:101D50008732F3E99F0709F040C0F7018689823096
:101D600099F5F0E2AF0EB11C005E1F4FF701858DB3
:101D700080FF4AC085A599828A82DB82CC82AE012F
:101D80004F5F5F4F64E090E00E941B0BF70181A959
:101D9000B982AA821B830C83AE014F5F5F4F64E060
:101DA00090E00E941B0B0F900F900F900F90DF910F
:101DB000CF911F910F91FF90EF90DF90CF90BF9048
:101DC000AF909F908F900895833081F620E2820E2D
:101DD000911C80E2C80ED11CC9CF8632954131F6E4
:101DE000F701868980FFC2CFC801841B950B19F4C7
:101DF0000F5F1F4FBBCF6217730709F0B7CF6B019F
:101E0000C80ED91E8A01B2CFB40187A190A50E9445
:101E1000DA0BB501F70181A592A50E94DA0BC8146F
:101E2000D90421F40A151B0509F4BDCFF701858DEE
:101E300085FF08C0868980FF1EC0102F0027A02ABA
:101E4000B12A8501B401F70185A596A50E94DA0B98
:101E5000B501F70181A992A90E94DA0BB601F70139
:101E600087A590A90E94DA0BB801F70183A994A96C
:101E70000E94DA0B98CFDC2CCC248C289D2864019E
:101E8000E1CFAF92BF92CF92DF92EF92FF920F938A
:101E90001F93CF93DF93EC0180913D03882349F09A
:101EA000C701880F991F8E739927E1ECEE22E82A6B
:101EB000F92A37FF05C0620F731F3195219531094B
:101EC000260F371F77FF02C070E060E08885998594
:101ED000281739070CF4C9016C01C61AD70A17FF75
:101EE00005C0400F511F119501951109040F151FD1
:101EF00057FF02C050E040E02A853B8502171307D8
:101F00000CF498015901A41AB50A8901015011096C
:101F10009C0121503109CE010E94910E8B988A9824
:101F20005BA54CA580910201877880930201A5985A
:101F30008EB1877C8EB960910201842F90E09C0164
:101F4000F5E0220F331FFA95E1F72076262B209338
:101F500002016EB19C01220F331F220F331F207329
:101F6000262B2EB964B39C01220F331F2072262B1F
:101F700024BB6EB19C013595279535952795287022
:101F8000262B2EB92091020103E0959587950A959D
:101F9000E1F78871822B809302018998899A809158
:101FA0000201877880930201A5988EB1877C8EB953
:101FB00060910201852F942F9C0145E0220F331F71
:101FC0004A95E1F72076262B209302014EB19C0121
:101FD000220F331F220F331F2073242B2EB944B33B
:101FE0009C01220F331F2072242B24BB4EB19C0175
:101FF00035952795359527952870242B2EB9209156
:102000000201E3E095958795EA95E1F78871822BC7
:10201000809302018998899A8A9ACA14DB042CF069
:102020009A2D8B2D5601C92ED82E8F2D99279C01C4
:1020300045E0220F331F4A95E1F72076AC01440FAB
:10204000551F440F551F342F3073AC01440F551FDB
:102050004072BC017595679575956795562F5870B8
:10206000F3E095958795FA95E1F78871B701A5E0BA
:10207000660F771FAA95E1F7962F9076B701660F46
:10208000771F660F771F6073F701EE0FFF1F7E2F1C
:102090007072D701B595A795B595A795A870E3E09F
:1020A000F594E794EA95E1F7EE2DE871EE2E1C1415
:1020B0001D040CF043C0F501B0910201B778B09354
:1020C0000201A598BEB1B77CBEB9B0910201B22B96
:1020D000B0930201BEB1B32BBEB9B4B3B42BB4BB41
:1020E000BEB1B52BBEB9B0910201B82BB0930201BD
:1020F0008998899AB0910201B778B0930201A598A6
:10210000BEB1B77CBEB9B0910201B92BB093020148
:10211000BEB1B62BBEB9B4B3B72BB4BBBEB1BA2BEC
:10212000BEB9B0910201BE29B09302018998899A83
:10213000319711F6E1E0CE1AD108B9CF8B9A8D8D87
:1021400080FF08C08F8D98A18632954191F48E89C9
:1021500080FF0FC00A851B8501501109288539852C
:102160002150310950E040E070E060E0CE010E9473
:10217000910EDF91CF911F910F91FF90EF90DF9023
:10218000CF90BF90AF900895EF92FF920F931F935F
:10219000CF93DF937C01E90177FD2AC057FD28C06A
:1021A000FC01808591856817790714F582859385F0
:1021B00048175907ECF480913D03882341F0C90189
:1021C000880F991F8E739927C17CC82BD92B8A0140
:1021D0009B01C7010E94910EBE01F70183A594A542
:1021E000DF91CF911F910F91FF90EF900C94DA0B3C
:1021F000DF91CF911F910F91FF90EF900895EF9293
:10220000FF920F931F93CF93DF9300D000D000D0A5
:102210001F92CDB7DEB77C01862F8370F701868BC6
:10222000962F917060FFF1C026813781F7013187C9
:102230002087992309F4ECC024813581F701338785
:102240002287823009F4E9C0833009F4E8C0813084
:1022500009F4E1C088E48A87F701258D368D30FFC7
:1022600003C08A8580588A8731FF04C08A8590E43C
:1022700089278A8733FF04C08A8598E089278A875F
:10228000F701878D90A120FFFAC08431F8E69F07FF
:1022900009F0C7C09A85892F88728A871F82892F83
:1022A00085958074282F2260892F90E095958795D9
:1022B00080729927822B88878BE38987AE01495FDB
:1022C0005F4F63E086EB90E00E941B0B2AE230E058
:1022D000F70130A727A38BE290E092A781A74CE2F9
:1022E00050E054A743A736A725A730AB27A792AB4A
:1022F00081AB94AB83ABAE01465F5F4F61E086E399
:1023000090E00E941B0B8A8590E0F70194A383A3C1
:10231000F701868980FF1CC0858D968D92FD18C0BF
:1023200087A190A521A532A530A727A392A781A7B1
:1023300085A596A521A932A936A725A792AB81AB81
:1023400087A590A923A934A930AB27A794AB83AB69
:10235000F70102851385015011092085318521502F
:10236000310950E040E070E060E0C7010E94910E4A
:10237000F70166817781878D90A110E000E020E071
:102380008732F3E99F0769F4F7012689225010E0AC
:1023900000E0223010F400E210E020E230E0201BE8
:1023A000310BF701458D40FF26C119820A837B83DB
:1023B0006C831D822E83AE014F5F5F4F66E083E327
:1023C00090E00E941B0B19820A83AE014F5F5F4FA2
:1023D00062E087E390E00E941B0BF701858D80FF90
:1023E00007C050E040E060E083E190E00E941B0BFA
:1023F0002A960FB6F894DEBF0FBECDBFDF91CF9106
:102400001F910F91FF90EF900895248135810ECF99
:102410002681378113CF88E21ECF88E91CCF88EF51
:102420001ACF833629E1920749F0813834E99307BE
:1024300029F08131E5E19E0709F048CF2A8527FF81
:1024400002C021602A872A8526FF02C022602A87CF
:102450008336F9E19F0721F48A858F738A8736CF07
:10246000813824E9920719F48A858F72F7CF813178
:10247000954109F02BCF8A858F7E806CEFCF2A851E
:10248000622F022E000C770B8339F7E79F0761F06C
:1024900008F042C08435E1E09E0709F469C080324B
:1024A000F4E59F0709F041C020E032E0F70130A7D2
:1024B00027A321E032E032A721A722E032E034A7AF
:1024C00023A720E132E036A725A721E132E030AB97
:1024D00027A722E132E032AB21AB23E132E034AB7B
:1024E00023AB662770788632F3E99F0709F480C032
:1024F0008032944509F47CC080E09AE6682B792B01
:1025000080E094E00E94DA0B6A85F4E06F9FB001EE
:1025100011246627717054C0863223E9920721F294
:10252000893035EB930709F4BFCF80E290E0F701E3
:1025300090A787A381E290E092A781A782E290E032
:1025400094A783A780E590E096A785A781E590E012
:1025500090AB87A782E590E092AB81AB83E590E0FA
:1025600094AB83AB66277078776280E690E0CACF41
:1025700087E390E0F70196A785A786E390E090AB0C
:1025800087A789E390E092AB81AB88E390E094ABBE
:1025900083AB80E290E090A787A381E290E092A7CE
:1025A00081A782E290E094A783A766277270686291
:1025B000F4E02F9FC001112488279170682B792B9C
:1025C00081E090E00E94DA0B8A85682F70E07595B3
:1025D0006795759567956870772783FD706160636F
:1025E000F70174A363A383E090E00E94DA0B90CE1E
:1025F00080E095E383CF8339F7E79F07D9F1F8F4BB
:10260000803234E59307B1F18338E7E79E0739F16B
:1026100084359140F9F4600F711F6150710981E3B5
:1026200090E00E94DA0BB80182E390E00E94DA0B9E
:1026300070E060E083E390E00E94DA0BD9CE86324E
:1026400023E99207B9F0893035EB930799F0853289
:10265000924909F3F70161A172A1626003C0F70119
:1026600061A172A181E690E00E94DA0BB8018AE6CE
:1026700090E0E2CFF70161A172A1626081E094E095
:102680000E94DA0BB80184E094E0D6CFEF92FF927B
:102690000F931F93DC01ED91FC9100A0F1A1E02DBF
:1026A000780101E010E019951F910F91FF90EF90D4
:1026B0000895EF92FF920F931F93DC01ED91FC912F
:1026C00000A0F1A1E02D7801890121E030E0199509
:1026D0001F910F91FF90EF9008950895FC01637092
:1026E000668B8481958126813781613039F0633032
:1026F00029F0918780873387228708953187208743
:102700009387828708952F923F924F925F926F92A4
:102710007F928F929F92AF92BF92CF92DF92EF9271
:10272000FF920F931F93CF93DF93CDB7DEB76A97D6
:102730000FB6F894DEBF0FBECDBF9A8F898F7A8314
:1027400069834A01D22E18870F833701BC2CDC0124
:1027500059962D913C915A972115310509F015C1D3
:1027600018968D919C911997681779070CF0D7C12D
:102770001A968D919C91481759070CF0D0C14C2C9A
:10278000512CB6E0CB9E600D711D11247C876B87A8
:10279000161617060CF0C3C1EA2DF0E0FA87E98798
:1027A00093E0EE0FFF1F9A95E1F7F88BEF87CF01CB
:1027B000840F951F181619060CF0B1C1A98DBA8D9A
:1027C00058968C91811104C0BFEABD1508F4D394CA
:1027D000A98DBA8DED91FC9111970284F385E02DBE
:1027E000CD011995B5E0DB9EC0011124E981FA8184
:1027F000FC83EB83312C212C9C012C563E4F388FCF
:102800002F8B4A2D50E05E8B4D8BEF89F88DE20DBA
:10281000F31D44919E828D82D12CC12C69817A81D5
:10282000620D731D7A8B698B842F90E09C8B8B8B50
:10283000E98DFA8DA081B18140FF82C0F1E0BF1225
:102840006FC0AF126DC01C96ED91FC912F81388541
:10285000A4014C0D5D1D69897A89898D9A8D199520
:10286000EB89FC89F595E7954E2F5FEFC51AD50AE0
:102870006D817E818D899E89680F791F7E836D832E
:1028800098E0C916D10481F6AFEF2A1A3A0AEB8113
:10289000FC81E40DF51DFC83EB83F5E02F1631047C
:1028A00009F0B3CF2F81388526153705B9F0A98DEA
:1028B000BA8DED91FC91B1E0BB1257C0AB1255C07F
:1028C00069817A816B5F7F4F0088F189E02D8301F8
:1028D00028E030E0A401898D9A8D1995A98DBA8DD3
:1028E000ED91FC9111970688F789E02DCD016A964C
:1028F0000FB6F894DEBF0FBECDBFDF91CF911F9111
:102900000F91FF90EF90DF90CF90BF90AF909F908E
:102910008F907F906F905F904F903F902F90199481
:102920001E96ED91FC91EF80F88409851A8592013D
:102930004D815E816B817C81898D9A8D199590CFB7
:102940002F8138852615370509F48ACF31E0B31277
:1029500007C0A31205C01C96ED91FC91930178CF9E
:102960001E96ED91FC917301E0CF6B857C85641917
:1029700075090684F785E02D73010F85188992018A
:10298000A401898D9A8D1995A9CFF9013496949156
:10299000329745915491D91AB7E0DB9E400D511DF5
:1029A0001124F901259134913C8B2B8BFA01259050
:1029B0003490FA013296749031963491398B329674
:1029C00064903196449041E04C1518F04A1508F097
:1029D0007FC0662D062C000C770B7C836B83842DC7
:1029E000042C000C990B9E838D83A98DBA8DED91DB
:1029F000FC9111970284F385E02DCD011995512C9E
:102A0000D12CC12CEA2DF0E0FA87E9872B2D30E09C
:102A10003C872B87A401440D511D47FC5A95588FC4
:102A20004F8B69817A81660D711D67FC7A957E876F
:102A30006D877989C71608F051CF2C2D30E04D8174
:102A40005E81420F531FA985BA854A9FC0014B9FE3
:102A5000900D5A9F900D1124FC01E80DF91DF88B83
:102A6000EF87852D612C4F89588D420F531F5E8B48
:102A70004D8B671408F050C044244394480E87706F
:102A800041F4C1010196EB89FC89E20DF31DD4905C
:102A90001C01D7FE19C0A98DBA8DED91FC91662D50
:102AA00070E0B1E0BB1219C0AB1217C02D853E8596
:102AB000620F731F0484F585E02D2F8138854D89C1
:102AC0005E89898D9A8D1995DD0C6394842DD1CF03
:102AD0001E821D821C821B8288CF4B815C81640F09
:102AE000751FAB85BC856A9FC0016B9F900D7A9F57
:102AF000900D112469817A81680F791F0684F7850A
:102B0000E02DEF80F88409851A859D014F8558894D
:102B1000898D9A8D1995D8CF570CC3948ACF6A9610
:102B20000FB6F894DEBF0FBECDBFDF91CF911F91DE
:102B30000F91FF90EF90DF90CF90BF90AF909F905C
:102B40008F907F906F905F904F903F902F9008955F
:102B50008F929F92AF92CF92EF92FF920F931F931B
:102B6000CF93DF93EC01262F898D9A8D009709F082
:102B700051C06A30D1F41D861C868D8948E0849F3F
:102B8000900111248E859F85820F931F9F878E87CA
:102B900081E090E0DF91CF911F910F91FF90EF9036
:102BA000CF90AF909F908F9008956D3089F3CC882F
:102BB000AD888F898823C1F08C859D8536E0C39EC2
:102BC000800D911D1124488559854817590764F4D3
:102BD0004E855F851D861C8638E0A39EC0011124AA
:102BE000840F951F9F878E87EA88FB88088919893B
:102BF0004E855F856C857D85CE010E9483132C896F
:102C00008C859D8546E0249F800D911D11249D8714
:102C10008C87BECF6A3069F41D861C86FC0138960D
:102C2000E4912D898E859F85E29F800D911D112451
:102C3000ADCF6D3009F4ACCFFC01349634916317FD
:102C400008F4A6CF3296E491E61708F4A1CFFC0170
:102C5000329685909490462F431B342F47E0349F43
:102C6000800C911C1124F401329634913196E49138
:102C70003323A9F1EE2399F1CC88F4013596E49140
:102C8000AD884F89442301F10E2E000CFF0BE30F9A
:102C9000F11DCE9EA001CF9E500D11246C857D8527
:102CA000460F571F68857985641775076CF44E8544
:102CB0005F851D861C86FC013896E491AE9E400D12
:102CC000511D11245F874E87EA88FB88088919897E
:102CD0004E855F856C857D85CE010E948313F4014E
:102CE0003496E4912C898C859D85E29F800D911D01
:102CF00011248DCF6F927F928F929F92AF92BF924D
:102D0000CF92DF92EF92FF920F931F93CF93DF93B7
:102D1000EC016B015A0139014801E881F981028413
:102D2000F385E02D1995E881F9810288F389E02D7A
:102D300087019301A501B601CE011995A501480DA2
:102D4000591D41505109E881F9810288F389E02D2C
:102D50009301B601CE011995E881F9810088F189C6
:102D6000E02D9401A501B601CE011995C60CD71C22
:102D7000B60161507109E881F9810088F189E02D7F
:102D80009401A501CE011995E881F9810688F7899A
:102D9000E02DCE01DF91CF911F910F91FF90EF9029
:102DA000DF90CF90BF90AF909F908F907F906F906B
:102DB00019946F927F928F929F92AF92BF92CF920F
:102DC000DF92EF92FF920F931F93CF93DF935C01FB
:102DD000EB016A01490138018701DC01ED91FC91A9
:102DE0006217730719F5641675062CF0962D872D5A
:102DF0003A01C92ED82E9601261937092F5F3F4F69
:102E0000048CF58DE02DA301BE01C5011995DF915C
:102E1000CF911F910F91FF90EF90DF90CF90BF90D7
:102E2000AF909F908F907F906F90089546155705B3
:102E300091F42617370724F0892D4B01C22FD82F84
:102E40009E01281939092F5F3F4F068CF78DE02D21
:102E5000A601B401DACF0284F385E02D1995D501DE
:102E6000ED91FC910488F589E02D83019401A60180
:102E7000BE01C5011995D501ED91FC910688F78930
:102E8000E02DC501DF91CF911F910F91FF90EF9041
:102E9000DF90CF90BF90AF909F908F907F906F907A
:102EA0001994EF92FF920F931F93DC011A960D91E4
:102EB0001C911B9718962D913C911997ED91FC91BF
:102EC00000A0F1A1E02D7B0150E040E070E060E067
:102ED00019951F910F91FF90EF9008954F925F9277
:102EE0006F927F928F929F92AF92BF92CF92DF921A
:102EF000EF92FF920F931F93CF93DF936C012B01FF
:102F00005A0139014801DC01ED91FC910284F385FD
:102F1000E02D1995E201640C751CD601ED91FC9130
:102F2000C615D7055CF40088F189E02D870194016E
:102F3000A501BE01C60119952196EFCF0688F78934
:102F4000E02DC601DF91CF911F910F91FF90EF907F
:102F5000DF90CF90BF90AF909F908F907F906F90B9
:102F60005F904F9019948F929F92AF92BF92CF92A1
:102F7000DF92EF92FF920F931F93CF93DF93EC01B9
:102F80005B014A016901E881F9810284F385E02D42
:102F9000199595012C0D3D1D21503109E881F981CC
:102FA0000488F589E02D78018401A401B501CE01E2
:102FB0001995E881F9810688F789E02DCE01DF9126
:102FC000CF911F910F91FF90EF90DF90CF90BF9026
:102FD000AF909F908F9019948F929F92AF92BF92D3
:102FE000CF92DF92EF92FF920F931F93CF93DF93D5
:102FF000EC015B014A0169017801E881F9810284F1
:10300000F385E02D1995C80CD91C860101501109D2
:10301000E881F9810488F589E02D9501A401B501C5
:10302000CE011995E881F9810688F789E02DCE0156
:10303000DF91CF911F910F91FF90EF90DF90CF9094
:10304000BF90AF909F908F901994EF92FF920F9343
:103050001F93DC01ED91FC9100A0F1A1E02D1995E9
:103060001F910F91FF90EF9008950F931F93DC0134
:10307000ED91FC91068CF78DE02D19951F910F9124
:1030800008950F931F93DC01ED91FC91048CF58D55
:10309000E02D19951F910F910895DC01ED91FC91A0
:1030A0000084F185E02D19942F923F924F925F9208
:1030B0006F927F928F929F92AF92BF92CF92DF9248
:1030C000EF92FF920F931F93CF93DF9300D01F9245
:1030D000CDB7DEB76C015B015C834B8381E090E090
:1030E0004C01841A950A2A01519441945108440CC8
:1030F000551CF12CE12C66246394712C422F4470F2
:103100004983522F52705A83822F8870282E217043
:10311000322E4B815C81E416F5060CF083C097FCDF
:1031200009C0415051095C834B8352E0450E511C4C
:10313000840C951C8FEFE81AF80A92E0690E711C56
:10314000860C971C49814423C1F098014B815C8116
:103150004A0D5B1DB6016E0D7F1D8BEE94E00E9443
:103160004D189801A5014E0D5F1D6B817C816C0D82
:103170007D1D8BEE94E00E944D185A815523C9F0B5
:103180009801A5018B819C81481B590BB6016E0DDE
:103190007F1D8BEE94E00E944D189801A5014E19F9
:1031A0005F096B817C816C0D7D1D8BEE94E00E942C
:1031B0004D182220C9F09801A5014E0D5F1DB601E2
:1031C0008B819C81681B790B8BEE94E00E944D18DB
:1031D00098014B815C814A0D5B1DB6016E197F0918
:1031E0008BEE94E00E944D18332009F492CF9801A1
:1031F000A5014E195F09B6018B819C81681B790B73
:103200008BEE94E00E944D189801A5018B819C8162
:10321000481B590BB6016E197F098BEE94E00E9492
:103220004D1877CF0F900F900F900F90DF91CF91A7
:103230001F910F91FF90EF90DF90CF90BF90AF90D4
:103240009F908F907F906F905F904F903F902F90C6
:1032500008952F923F924F925F926F927F928F923A
:103260009F92AF92BF92CF92DF92EF92FF920F9315
:103270001F93CF93DF9300D000D0CDB7DEB74C01C2
:103280001B016A012901421753070CF099C05A83A8
:10329000498357FF05C09A012F5F3F4F3A83298327
:1032A00089819A81959587959A83898389819A8165
:1032B0009E838D830817190714F41E830D832D81B7
:1032C0003E81220F331F3A832983C601821B930B51
:1032D0009C838B836D807E80680C791C87019C01A8
:1032E000A101B3018BEE94E00E9435185201A20CAB
:1032F000B31CA501415051092B813C81B3018BEED8
:1033000094E00E94351829813A81421A530A8D812E
:103310009E81280E391E9201A101B4018BEE94E02A
:103320000E944118C80CD91CB60161507109920164
:10333000A1018BEE94E00E94411821E04D815E8155
:10334000B101C3010E9454182D813E81C21AD30AD3
:1033500031E0C31AD10822E04D815E81B101C6017E
:103360000E9454188D819E81A81AB90A91E0A91A69
:10337000B10824E04D815E81B501C6010E94541858
:1033800028E04D815E81B501C3010E945418269644
:103390000FB6F894DEBF0FBECDBFDF91CF911F9166
:1033A0000F91FF90EF90DF90CF90BF90AF909F90E4
:1033B0008F907F906F905F904F903F902F900895E7
:1033C000359527953A83298371CF2F923F924F925B
:1033D0005F926F927F928F929F92AF92BF92CF92A5
:1033E000DF92EF92FF920F931F93CF93DF9300D062
:1033F00000D0CDB7DEB73C016A013E832D83FC824D
:10340000EB825801A41AB50AB7FE03C0B194A19487
:10341000B1088D809E80861A970A97FE03C091940A
:10342000819491088A149B045CF0902F812F0D8168
:103430001E819D838E839C2D8D2D6B01692F782F8E
:103440000C151D055CF09D818E817E836D83692F37
:10345000782F902F812F8601C92ED82E1601201A81
:10346000310A2B012D813E81421A530A57FE03C0B7
:10347000519441945108710137FE03C03FEFE31AA4
:10348000F30AF594E7948D819E81861797075CF582
:10349000A1E0B0E0BA83A983C016D1064CF1D301F4
:1034A000ED91FC910484F585E02D2B813C81A801F0
:1034B0006D817E818A149B041CF04D815E81B80170
:1034C000C3011995E418F508F7FE0AC02D813E8165
:1034D00089819A81280F391F3E832D83E20CF31CCA
:1034E0000F5F1F4FD9CF2FEF3FEF3A832983D4CF00
:1034F00026960FB6F894DEBF0FBECDBFDF91CF91F9
:103500001F910F91FF90EF90DF90CF90BF90AF9001
:103510009F908F907F906F905F904F903F902F90F3
:10352000089508952091EA02260F3327331F213290
:103530003105ECF420910E03FC0190E080E0243092
:1035400069F082E00895A091EA022191AC0146530E
:103550005D4FA40FB52FB11D2C930196861798F3DC
:103560008091EA02680F6093EA0280E0089581E0AA
:1035700008958FEF9FEF08958FEF9FEF089580914B
:10358000C30290E09195819591090895CF93DF93BF
:10359000CB01EA01642F0E94921ACE01DF91CF91F4
:1035A0000895CF93DF931F92CDB7DEB7698361E0B3
:1035B000CE0101960E94921A81E090E00F90DF9177
:1035C000CF91089590E080E00895EF92FF920F93DD
:1035D0001F93DC011A960D911C911B9718962D9143
:1035E0003C911997ED91FC9100A0F1A1E02D7B0198
:1035F00050E040E070E060E019951F910F91FF905E
:10360000EF900895FB0101900020E9F73197AF0199
:10361000461B570BDC01ED91FC910280F381E02DFC
:103620001994CF92DF92EF92FF920F931F93CF9353
:10363000DF93CBECD4E06E817F818BEE94E00E942F
:10364000E51A688D70E08F8990E02BEEC22E24E0A1
:10365000D22E9C01295F3F4FF601358724879B01BD
:1036600026533F4F37872687EC80FD800A851B85D0
:10367000298D30E0488559856F537F4F0E94291965
:103680008A819B8128813981F601318B208B938B34
:10369000828B6BE472E0C601DF91CF911F910F9195
:1036A000FF90EF90DF90CF900C94021B0E9442336A
:1036B000FC0180819181009711F00C94D83108951C
:1036C0000F931F93CF93DF93EC018881998100972B
:1036D00059F02A813B812617370730F081E0DF91CE
:1036E000CF911F910F9108958B016F5F7F4F0E94C3
:1036F0006132009759F0998388831B830A832C8158
:103700003D81232B59F7FC011082E8CF80E0E7CF01
:10371000EF92FF920F931F93CF93DF93EC017B0106
:103720008A01BA010E94601B28813981811114C06D
:103730002115310519F0C9010E94D831198218826A
:103740001D821C821B821A82CE01DF91CF911F91B4
:103750000F91FF90EF9008951D830C83B701C9016D
:103760000E945933F1CFFC01118210821382128220
:103770001582148250E040E061EA72E00C94881BEC
:10378000FB0101900020E9F73197AF01461B570B71
:103790000C94881B1F93CF93DF9385ED8093BC001F
:1037A0008091C6029091C702A091C802B091C9024F
:1037B0000796A11DB11D23E0B695A795979587950E
:1037C0002A95D1F72091BC0024FD03C010920E036E
:1037D00052C04091C6025091C7026091C8027091D8
:1037E000C902452B462B472B69F30097A105B1056C
:1037F00041F025E32A95F1F700000197A109B109ED
:10380000E1CF8091C502C1E0C093C402882399F141
:10381000D091B8001091BA008091BC008A7B80934F
:10382000BC0060E084E10E943D0960E085E10E9407
:103830003D0910920E03C093100310920F0361E034
:1038400084E10E943D0961E085E10E943D0980918B
:10385000B9008E7F8093B9008091B9008D7F8093ED
:10386000B90088E48093B80085E48093BC0010938D
:10387000BA00D093B800DF91CF911F9108951F92A5
:103880000F920FB60F9211240BB60F922F933F9306
:103890004F935F936F937F938F939F93AF93BF9358
:1038A000EF93FF938FE393E00E948108FF91EF91E4
:1038B000BF91AF919F918F917F916F915F914F9148
:1038C0003F912F910F900BBE0F900FBE0F901F9046
:1038D00018951F920F920FB60F9211240BB60F92EC
:1038E0002F938F939F93EF93FF93E0914F03F0916A
:1038F00050038081E0915503F091560382FD1DC075
:103900009081809158038F5F8F73209159038217A4
:1039100041F0E0915803F0E0E15CFC4F958F80931B
:103920005803FF91EF919F918F912F910F900BBEB4
:103930000F900FBE0F901F9018958081F2CF1F92AD
:103940000F920FB60F9211240BB60F922F933F9345
:103950004F935F936F937F938F939F93AF93BF9397
:10396000EF93FF938CED93E00E948108FF91EF911C
:10397000BF91AF919F918F917F916F915F914F9187
:103980003F912F910F900BBE0F900FBE0F901F9085
:1039900018951F920F920FB60F9211240BB60F922B
:1039A0002F938F939F93EF93FF93E091EC03F0910C
:1039B000ED038081E091F203F091F30382FD1DC0DD
:1039C00090818091F5038F5F8F732091F6038217AA
:1039D00041F0E091F503F0E0E452FC4F958F8093C5
:1039E000F503FF91EF919F918F912F910F900BBE57
:1039F0000F900FBE0F901F9018958081F2CF1F92ED
:103A00000F920FB60F9211242F933F938F939F9392
:103A1000AF93BF938091350390913603A091370304
:103A2000B09138033091340323E0230F2D3758F53C
:103A30000196A11DB11D209334038093350390930B
:103A40003603A0933703B0933803809139039091E4
:103A50003A03A0913B03B0913C030196A11DB11D17
:103A60008093390390933A03A0933B03B0933C03B4
:103A7000BF91AF919F918F913F912F910F900FBE6A
:103A80000F901F90189526E8230F0296A11DB11DD7
:103A9000D2CF1F920F920FB60F9211240BB60F9236
:103AA0002F933F934F935F936F937F938F939F9346
:103AB000AF93BF93EF93FF938091980490919904F3
:103AC0000196909399048093980480919804909122
:103AD000990483709927892B09F030C180919C0447
:103AE00090919D04019649F080919C0490919D04D1
:103AF000019690939D0480939C0410929A0488E010
:103B000090E0FC01EE0FFF1FE758FB4F2581368147
:103B1000FC01EE0FFF1FE558FB4F368325834581DF
:103B2000568120919604309197042417350728F484
:103B300020919A042F5F20939A04019710F78091A7
:103B40007A040E94FA0990937F0480937E04809106
:103B5000980490919904803D974040F11092990407
:103B600010929804209194043091950480919204CD
:103B7000909193044091940450919504841B950B6B
:103B8000880F991F63E070E00E940C31620F731F71
:103B90007093970460939604109293041092920489
:103BA00080E094E090939504809394042091920493
:103BB0003091930480917E0490917F0428173907F7
:103BC00040F480917E0490917F04909393048093BD
:103BD0009204209194043091950480917E049091F8
:103BE0007F048217930740F480917E0490917F04B4
:103BF000909395048093940480919A04883008F4FB
:103C000097C080919B04811190C08091A4049091F1
:103C1000A5049093A7048093A6048091A204909198
:103C2000A3049093A5048093A4048091A004909190
:103C3000A1049093A3048093A20480919E04909188
:103C40009F049093A1048093A0048091A804909174
:103C5000A904A091AA04B091AB048093AC04909302
:103C6000AD04A093AE04B093AF042FB7F894809145
:103C7000350390913603A0913703B09138032FBFDD
:103C80008093A8049093A904A093AA04B093AB04D2
:103C90004091AC045091AD046091AE047091AF04BA
:103CA0008091A8049091A904A091AA04B091AB04BA
:103CB000481759076A077B0740F01092AC0410922E
:103CC000AD041092AE041092AF048091A8049091BC
:103CD000A904A091AA04B091AB044091AC04509106
:103CE000AD046091AE047091AF04841B950B90936A
:103CF0009F0480939E0480919E0490919F04892B41
:103D000081F020919E0430919F0450E040E060E6F5
:103D10007AEE80E090E00E94842F30939F042093FD
:103D20009E0410929D0410929C0481E080939B0459
:103D300080919A04833010F410929B0480917D044A
:103D40008823E1F0809179048823C1F080919C045C
:103D500090919D04892B91F080919C0490919D04F9
:103D6000499760F480917C0491E0892780937C04DA
:103D700060917C0480917B040E943D09FF91EF914A
:103D8000BF91AF919F918F917F916F915F914F9173
:103D90003F912F910F900BBE0F900FBE0F901F9071
:103DA00018951F920F920FB60F9211240BB60F9217
:103DB0002F933F934F935F936F937F938F939F9333
:103DC000AF93BF93EF93FF938091B900887F8036C4
:103DD00009F44DC008F040C0883209F4A7C028F5A6
:103DE000803109F49BC0C8F4882309F4F7C08830F7
:103DF00009F494C0FF91EF91BF91AF919F918F9182
:103E00007F916F915F914F913F912F910F900BBEDA
:103E10000F900FBE0F901F901895883109F486C03F
:103E2000803241F780930D0314C0803409F49BC0A5
:103E300040F48033B9F38833E9F680930D0385ECC1
:103E4000AEC0803509F483C0883509F494C0883445
:103E500089F60E94CA1BCECF883909F48AC038F58A
:103E6000883729F050F4883611F0803719F683E04E
:103E700080930E0310920C0355C0883809F479C062
:103E8000803919F0803809F0B5CF80910C03803269
:103E900008F06FC0E0910C0381E08E0F80930C035B
:103EA0008091BB00F0E0E451FD4F80833BC0803B3C
:103EB00039F0D0F4803A09F477C0883A09F09ACF03
:103EC00084E080930E031092EB021092EA02F0E07D
:103ED000E0E019958091EA0281110FC081E08093A2
:103EE000EA021092CA0209C0803C09F4A8CF883CBB
:103EF00009F4A5CF883B09F07DCFE091EB0281E08A
:103F00008E0F8093EB02F0E0E653FD4F80818093AB
:103F1000BB009091EB028091EA0229C080913303AB
:103F20008093BB0085EC8093BC0064CF90913203FA
:103F300080913103981758F5E091320381E08E0F9C
:103F400080933203F0E0EF5EFC4F8081E9CFE09197
:103F5000320381E08E0F809332038091BB00F0E04A
:103F6000EF5EFC4F8083909132038091310398176C
:103F7000C8F285E8D8CFE091320381E08E0F8093BC
:103F800032038091BB00F0E0EF5EFC4F80838091B4
:103F9000100381115ECF81E080930F0384EA809348
:103FA000BC0010920E0326CF85EC8093BC001092CB
:103FB0000E0380910C03803230F4E0910C03F0E0AA
:103FC000E451FD4F108260910C0370E08CEE92E0A2
:103FD000F0E0E0E0199510920C030CCF10920D0365
:103FE00038CF3F924F925F926F927F928F929F92C3
:103FF000AF92BF92CF92DF92EF92FF920F931F93F7
:10400000CF93DF9300D01F92CDB7DEB73C016B0199
:104010004A015901290187E0480E511C93E055944B
:1040200047949A95E1F7CB01800F911F9A8389837A
:1040300010E000E0312C1C821B828B819C818770F8
:104040009927330C892B61F4EB81FC8183E0F59592
:10405000E7958A95E1F7E00FF11FE80DF91D34901F
:1040600037FE0AC09701A6016B817C81660D771D22
:104070008BEE94E00E944D188B819C8101969C836D
:104080008B83A816B906C9F69FEFC91AD90A040D81
:10409000151D89819A81C816D90669F60F900F906F
:1040A0000F900F90DF91CF911F910F91FF90EF90A4
:1040B000DF90CF90BF90AF909F908F907F906F9048
:1040C0005F904F903F9008958F929F92AF92BF92D2
:1040D000EF92FF920F931F93CF93DF93CDB7DEB78D
:1040E000A1970FB6F894DEBF0FBECDBF7C01FA01D9
:1040F000CB0119A2223008F42AE08E010F5D1F4F78
:10410000822E912CB12CA12CBF01A50194010E94FB
:10411000B62FF901CA016A300CF5605DD8016E93C3
:104120008D01232B242B252B79F790E080E010972D
:1041300021F0BD01C7010E94021BA1960FB6F894A1
:10414000DEBF0FBECDBFDF91CF911F910F91FF90CA
:10415000EF90BF90AF909F908F900895695CDECFF5
:10416000FC0124813581FB014481558124173507E9
:10417000E1F4FC0180819181FB01608171810097F4
:10418000D1F061157105A1F4232BC1F0FC018081F0
:1041900090E008C0232B91F0FB01808190E0919585
:1041A0008195910921E0892B09F020E0822F089563
:1041B0000E945033F7CF6115710561F721E0F6CF0A
:1041C000FB01DC0111961C921E9213961C921E920A
:1041D000129715961C921E9214978617970749F00E
:1041E000608171816115710521F0448155810C94C4
:1041F000881B08951F93CF93DF93EFE3F3E01382BF
:10420000128248EE53E060E070E044835583668399
:10421000778381E192E0918380832DEC30E03587D4
:1042200024872CEC30E03787268728EC30E0318B70
:10423000208B29EC30E0338B228B2AEC30E0358B5D
:10424000248B2EEC30E0378B268B118E128E138E42
:10425000148EECEDF3E0138212824483558366835F
:1042600077839183808385EC90E09587848784ECC5
:1042700090E09787868780EC90E0918B808B81EC33
:1042800090E0938B828B82EC90E0958B848B86EC14
:1042900090E0978B868B118E128E138E148EC9E749
:1042A000D4E018821FEF19831A831B821C821A8E96
:1042B000198E80E094E09C8F8B8F1E8E1D8E18A22D
:1042C0001F8E19A21AA21CA21BA2EEE9F4E08AE03A
:1042D000DF011D928A95E9F7EBEEF4E0138212827A
:1042E00020EF30E03583248380E491E09783868358
:1042F0003187208793878287168A158614861786CA
:10430000168681E0858B848B2FEF3FEF338B228BDA
:10431000318B208B878B108E128E118E23E232E030
:1043200031832083EBECF4E02FEE3BE731832083F5
:104330001382128235832483178216822BE331E0A5
:1043400031872087878B98E0908F90E2918F828FC2
:1043500082E0838F88E090E09387828787E3848F71
:1043600088E3858F87E0868F86E0878F8CE291E0F7
:104370009587848784E590E0978786878EE390E031
:10438000918B808B89EB93E0938B828B88E893E011
:10439000958B848B80EB94E00E94B31B86EB94E0BA
:1043A0000E94B31B8CEB94E00E94B31B82EC94E060
:1043B0000E94B31B60E572E080EB94E00E94C01B9A
:1043C00068E572E086EB94E00E94C01B6FE572E046
:1043D0008CEB94E00E94C01B6AE672E082EC94E0F1
:1043E0000E94C01BE0EBF4E0108E118E83E2828FFE
:1043F0008DE389831A8380E489831A83DF91CF91C7
:104400001F910895CF93DF93CDB7DEB7AC970FB66A
:10441000F894DEBF0FBECDBF789484B5826084BDB2
:1044200084B5816084BD85B5826085BD85B58160B8
:1044300085BD80916E00816080936E001092810036
:1044400080918100826080938100809181008160F1
:1044500080938100809180008160809380008091B2
:10446000B10084608093B1008091B000816080933E
:10447000B0008091910082608093910080919100C2
:104480008160809391008091900081608093900082
:104490008091A10082608093A1008091A100816041
:1044A0008093A1008091A00081608093A000809102
:1044B000210182608093210180912101816080939C
:1044C00021018091200181608093200180917A00F8
:1044D000846080937A0080917A00826080937A0071
:1044E00080917A00816080937A0080917A00806860
:1044F00080937A001092C1008CED93E00E94DB075C
:1045000060E090E080E00E94E90C7C01883024E5C6
:10451000920761F18032944549F189E8E816F8067E
:1045200009F42CC160E087E690E00E94E90C873432
:10453000974409F428C18FEE90E00E94F80D7B01AA
:104540006732734999F081EA90E00E94D90DB3E691
:10455000EB2EB9E1FB2E6130E1E67E0739F06F3FCB
:104560007607D9F576E2E72E75E1F72E0E94BA0CB0
:104570001092070510920605F0920B05E0920A05CD
:10458000A1E3EA16A0E8FA0611F40C942A2C08F02C
:10459000CDC1E3E5EE16E0E2FE0611F40C94772CB3
:1045A00008F051C121E1E21625E1F20609F4ADC29D
:1045B00008F014C189E9E816F10411F40C943A2CBE
:1045C00008F0F5C080E091E1EA94EF2809F4FDC01D
:1045D0001092F0041092EF0495C261157F4F29F4F8
:1045E00060E2E62E65E1F62EC1CF8FEB90E00E94EF
:1045F000F80D7B016735734809F4B8CF81E8E816F8
:1046000084E9F80609F4B2CF91E1E91695E1F906DB
:1046100009F4ACCFA0E2EA16A5E1FA0609F3B6E286
:10462000EB16B5E1FB0609F49DCFE1E8EE16E5E1F6
:10463000FE0609F49BCFE114F4E1FF0609F4A8C0DB
:1046400084ED90E00E94D90D7B016031734509F43F
:104650008DCF87ED90E00E94D90D7B0161337048CA
:1046600009F484CF8EEF90E00E94D90D672F782F48
:10467000892F99277B0183E5E81680E2F80609F483
:1046800075CF84E090E00E94D90D7B01811126C096
:10469000E11490E8F90611F580910A0290910B025D
:1046A000A0910C0289839A83AB83AE014F5F5F4F69
:1046B00063E089EB90E00E941B0B60E080ED90E0EE
:1046C0000E94E90C49E9E42EF12C893909F44ECF16
:1046D0008039E1F430E9E32EFE2C48CFA6E2EA1659
:1046E000A5E1FA0609F43ECFB0EFEB16B9E8FB06F8
:1046F00009F453C0E2E5EE16E5E8FE0609F452C0FF
:10470000F1E1EF16FCEAFF0609F430CF83ED90E00B
:104710000E94D90D672F782F892F99277B01633647
:10472000714909F423CF83ED90E00E94D90D872FC2
:10473000E62EF72E39E2E31632E3F30609F416CF3C
:104740008359823008F412CF783909F40FCF7737C4
:1047500009F40CCF763109F409CF83EDE816F104A2
:1047600009F404CF93EDE916F90609F4FFCE60E0F1
:1047700090E080E00E94E90C7C01F8CE99E8E92EF7
:1047800092E1F92EF3CE87E4E82E83E8F82EEECE00
:10479000A4E1EA2EA8E6FA2EE9CEF5E3EF2EF7E73C
:1047A000FF2EE4CEE9E8EE2EE7E7FE2EDFCEB4E5FD
:1047B000EB16B1E0FB0609F499C1E5E0EE16E5E180
:1047C000FE0609F005CF84E090E1909309058093FF
:1047D000080568ED70E08FE49BE092C1F6E2EF1609
:1047E000F5E1FF0611F40C94D32B98F430E2E316B4
:1047F00035E1F30609F0ECCE83E194E090930905EE
:104800008093080506E010E06AE0E62E69E0F62EE7
:1048100094C181E8E81685E1F80611F40C94802C27
:1048200092E0E91696E1F90609F0D2CE83E094E031
:10483000909309058093080506E010E0E3E2EE2E70
:10484000E8E0FE2E7AC1A9E0EA16A8E6FA0611F41D
:104850000C94532C38F5E5E3EE16E5E4FE0609F476
:10486000AFC798F429E2E21622E3F20609F0B0CECF
:1048700083E096E0909309058093080500E410E03A
:104880004EEBE42E48E0F42E58C130E1E31633E558
:10489000F30609F4A0C788E0E81684E5F80609F4F1
:1048A00092CF96CE99E8E91697E7F90609F4C5C7BD
:1048B000B8F4B4E1EB16B8E6FB0609F4A5C7E3E8E3
:1048C000EE16E7E7FE0609F083CE82E091E19093D1
:1048D00009058093080568E870E087E29CE010C154
:1048E000F3E9EF16F7E7FF0611F40C94B52C26E96F
:1048F000E21627E7F20609F06BCE83E094E090938E
:1049000009058093080580EE91E09093F20480936E
:10491000F10480E491E09093F0048093EF040DE0C3
:1049200010E03EE2E32E37E0F32E07C138E3E31652
:1049300033E9F30611F40C947A2C08F05FC095E289
:10494000E91693E9F90609F448C0A0F5B0E9EB16B9
:10495000FB0609F48CC7F8F483E094E1F7E5EF1661
:10496000F3E8FF0609F034CE90930905809308051B
:1049700080EE91E09093F2048093F10480E491E062
:104980009093F0048093EF0402E010E0B4E6EB2E85
:10499000B8E0FB2ED2C083E094E022E0E21623E9E7
:1049A000F20609F481C030E2E31633E9F30609F4B4
:1049B0000ACF0ECE89E2E81683E9F80609F49DC70E
:1049C00078F4A7E2EA16A3E9FA0609F477C7B8E291
:1049D000EB16B3E9FB0609F0FBCD80E091E165C77A
:1049E000E1E3EE16E3E9FE0631F0F5E3EF16F3E955
:1049F000FF0609F0EDCD80E090E157C729E8E21607
:104A000024E9F20608F042C037E8E31634E9F30679
:104A100008F092C781E8E81684E9F80609F489C726
:104A2000B0F4A0E4EA1AA3E9FA0AB2E0EB16F10442
:104A300008F0CECD83E194E09093090580930805BA
:104A400005E610E06BEBE62E67E0F62E76C0E6E8B2
:104A5000EE16E4E9FE0609F0BBCD83E094E0909306
:104A600009058093080580EE91E09093F20480930D
:104A7000F10480E491E09093F0048093EF040BE361
:104A800010E04BE3E42E47E0F42E57C0F5E0EF16BC
:104A9000F5EBFF0601F198F483E194E131E1E316CF
:104AA0003CEAF30609F094CD90930905809308053C
:104AB00003E010E070E2E72E78E0F72E3EC089E0D8
:104AC000E81685EBF80609F450C795E0E91695EC71
:104AD000F90609F07DCD88E090E190930905809377
:104AE000080560EB70E083ED99E00AC082E090E198
:104AF00090930905809308056CE970E08BE49DE0D4
:104B00000E942C0EF12CE12C18C083E090E09093D1
:104B100009058093080580EE91E09093F20480935C
:104B2000F10480E491E09093F0048093EF0403E0BB
:104B300010E070E1E72E79E0F72E20910905822F31
:104B400082958F7090E08170992790930D058093E6
:104B50000C05E114F10481F069E070E08AEF96E061
:104B60000E946F0AB801C7010E946F0A66E070E0F8
:104B700084EF96E00E946F0A60E08BEE94E00E9462
:104B8000FF1060E08BEE94E00E944E0E80910A05CB
:104B900090910B058838944909F0DAC110923D03D1
:104BA00020EE3FEF50E040E070E060E08BEE94E0FC
:104BB0000E94C410E0901605F0901705809108053A
:104BC00080FF03C09EE2E92EF12C80910A059091AE
:104BD0000B058230964119F48EE2E82EF12C10E09C
:104BE00000E030E020E050E040E070E060E08BEE7C
:104BF00094E00E94910E8091080580FD10C070E045
:104C000060E080911205909113050E94DA0B70E02C
:104C100060E080911405909115050E94DA0B8B9845
:104C20008A9880910201877880930201A5988EB1BD
:104C3000877C8EB9409102018F2D90E09C0105E0A8
:104C4000220F331F0A95E1F72076242B20930201CF
:104C50004EB19C01220F331F220F331F2073242BD0
:104C60002EB944B39C01220F331F2072242B24BB86
:104C70004EB19C0135952795359527952870242BA5
:104C80002EB920910201E3E095958795EA95E1F729
:104C90008871822B809302018998899A8091020100
:104CA000877880930201A5988EB1877C8EB9409158
:104CB0000201C7019701F5E0220F331FFA95E1F7D2
:104CC0002076242B209302014EB19701220F331F2F
:104CD000220F331F2073242B2EB944B39701220FC8
:104CE000331F2072242B24BB4EB197013595279595
:104CF000359527952870242B2EB92091020103E0C9
:104D0000959587950A95E1F78871822B809302012A
:104D10008998899A8A9A8091010187788093010104
:104D20009D988DB1877C8DB94091080550910905FA
:104D300080910A0590910B0546FD13C0889A8898CA
:104D400088988898209100012CB122B32CB1209131
:104D50000001889A40FD05C08938E2E19E0709F00C
:104D600017C68131954161F4889A88988898889807
:104D7000809100018CB182B38CB180910001889A3E
:104D8000BA0164707727889A88988898889844FF31
:104D900021C6209100018CB1F2B3ECB190910001D9
:104DA00030E0A5E035952795AA95E1F72370869523
:104DB00086958C70822B2F2F26952071822B04E0F4
:104DC000E09F900111242072822B18E0919F9001A6
:104DD0001124207C822B889A889A889888988898B1
:104DE000209100019CB1A2B3FCB1E091000130E040
:104DF000B5E035952795BA95E1F723709695969588
:104E00009C70922B2A2F26952071922BA4E0FA9F5A
:104E1000900111242072922BB8E0EB9F9001112495
:104E2000207C922B889A889A8898889888982091D4
:104E30000001ECB0A2B3FCB1E091000130E015E05C
:104E4000359527951A95E1F72370E694E6940E2D93
:104E50000C70E02EE22A2A2F26952071E22A14E017
:104E6000F19F900111242072E22AA8E0EA9F9001AC
:104E70001124207C2E29889AE92FF0E0672B09F471
:104E800094C5E22EF12CFE2CEE24EE24B8EFFB228A
:104E900073E0EE0FFF1F7A95E1F7E07EF770EE2AE0
:104EA000FF2A869586958695E82A80913D0388237A
:104EB00099F0C70115E0969587951A95E1F78072EC
:104EC00099279701369527952F713327822B932B9E
:104ED000B0ECEB22E82AF92A889A8B9A809101019A
:104EE0008867809301019D9A8DB188638DB940FDDB
:104EF00014C00091F5041091F6040150110920919D
:104F0000F3043091F4042150310950E040E070E0A6
:104F100060E08BEE94E00E94910EEFE1EE16EFEF71
:104F2000FE06B1F486E08983AE014F5F5F4F61E01A
:104F30008AE390E00E941B0B80910805909109057F
:104F40008F7E909309058093080581E080933D034F
:104F50006091E5048BEE94E00E94FF108091E604DE
:104F6000811101C081E08093FF048093000560916E
:104F7000D1047091D2048BEE94E00E94E51AB12C1A
:104F8000A12CDD24D3946091E3046A0D7B2D711D67
:104F90008091E20490E09C01295F3F4F3093F80438
:104FA0002093F7049B012C5F3F4F3093FA0420932A
:104FB000F904E090CF04F090D0040091D504109152
:104FC000D6042091E40430E04091D3045091D404FD
:104FD000675071090E9429198091CD049091CE04E7
:104FE0002091CB043091CC043093FC042093FB043B
:104FF0009093FE048093FD04F1E064E772E0DF1615
:1050000039F002E06EE772E0D01611F066E872E067
:105010008BEE94E00E94021BD39418E2A10EB11C07
:1050200024E0D212B0CF61E08EE30E94C90960E0B3
:105030008EE30E943D0961E08CE30E94C90961E0B2
:105040008CE30E943D0960E083E10E94C90961E0B0
:1050500082E10E94C9098FE393E00E94DB0782E0AE
:105060008093B000D092B10099EF9093B3008093F9
:10507000700080E88FBF80917B048F3F81F0109299
:105080007C0481E080937D0480917B0461E00E9438
:10509000C90960917C0480917B040E943D0960E015
:1050A0008DE30E94C90966246A94B3E07B2E0091C7
:1050B000D7041091D8041EA30DA39090E904009189
:1050C000E8041091E7045090EA04652D70E0FB01BC
:1050D000E95BF14FE491F0E0EE0FFF1FE35DF14F6C
:1050E000A590B490412F50E0FA01E95BF14FE491B3
:1050F000F0E0EE0FFF1FE35DF14F2591349138A7EB
:105100002FA3202F30E0F901E95BF14FE491F0E0AB
:10511000EE0FFF1FE35DF14FE590F490892D90E0D5
:10512000FC01E95BF14FE491F0E0EE0FFF1FE35D5E
:10513000F14F25903490FB01E951F24FE491E98B56
:10514000FA01E951F24FE491EB8BF901E951F24F89
:10515000E491EA8BFC01E951F24FE491EC8B60E0C1
:10516000812F0E94C90960E0892D0E94C90961E070
:10517000852D0E94C90961E0802F0E94C909898993
:10518000D5019C91892B8C938A89F7019081809518
:1051900089238083812F0E94FA097C01812F0E943C
:1051A000FA096C01C7018C199D090496099708F04A
:1051B00087C4CE0CDF1CD594C794F1E0F9A360E05E
:1051C000852D0E94C90960E0802F0E94C90961E015
:1051D000812F0E94C90961E0892D0E94C9098C892B
:1051E000D1019C91809589238C938B89EFA1F8A59F
:1051F0009081892B8083802F0E94FA094C01802F97
:105200000E94FA097C01C4018E199F09049609972E
:1052100008F058C4E80CF91CF594E79461E0852D7A
:105220000E94C90960E0812F0E94C9098989D501BE
:105230009C91809589238C938C89F1019081892B95
:105240008083802F0E94FA095C01812F0E94FA0955
:10525000BC010DA11EA10115110509F435C4072ECD
:10526000000C880B990B0E948B2E1B012C01B501A1
:10527000BB0C880B990B0E948B2E9B01AC01C201C9
:10528000B1010E94543020E030E040E85FE30E942A
:10529000E72F4B015C01B3016C197D09072E000C4F
:1052A000880B990B0E948B2EA50194010E94C62E9B
:1052B0004B015C01B80190E080E00E94892EA501BD
:1052C00094010E94C62E20E030E040E85AE30E949C
:1052D000C62E0E94C6308B0129A1211102C010E008
:1052E00000E061E08091E8040E94C90961E08091DA
:1052F000E7040E94C9090B3011052CF0C3018E1977
:105300009F099CA78BA7C090F304D090F4040D2CA8
:10531000000CEE08FF088090DB049090DC04B12CB8
:10532000A12CEBA5FCA5CF01FF0FAA0BBB0BA50180
:105330009401281B390B4A0B5B0BC701B6010E9475
:10534000FC302091DF043091E00450E040E0281967
:1053500039094A095B090E94842FDA01C9018C0DC1
:105360009D1DAE1DBF1D60E370E00E9420316330C3
:1053700008F418C4653008F413C4653009F012C489
:105380000E94111B8091F3049091F4048C01015050
:1053900011091EA30DA38090F5049090F60411E36B
:1053A000811A9108CE014B960E94B31BD12CC12CBF
:1053B000B12CA12CC401B0E0A0E08FA398A7A9A7AD
:1053C000BAA789E1282E312C9FEFC91AD90A8FE399
:1053D00093E00E94610818161906CCF58FE393E05C
:1053E0000E943F089091CA048913BBC34F8D58A1F6
:1053F0006B8D7C8D8CED93E00E940308BE01655E91
:105400007F4FCE0145960E94E02062EC74E0CE0111
:1054100001960E94E020BE016F5F7F4FCE0145964E
:105420000E94B020182FCE0101960E94581B112314
:1054300009F450C3A1E0A093C904CE0145960E948F
:10544000581B61EA72E0CE014B960E94C01BEDA191
:10545000FEA1CE16DF0610F0D12CC12C8DE30E94E8
:10546000FA099C01990F440B550B3450410951091D
:105470006FA178A589A59AA50E94FC3020E034E0B0
:1054800040E050E00E94842F88279927DC01821B8E
:10549000930BA40BB50B89A39AA3ABA3BCA361E99F
:1054A00072E08FE393E00E94021B8DE30E94FA09F1
:1054B0002C01990F660877082AE0B301A20177FE54
:1054C0000DC06DE28FE393E00E94A30844275527A7
:1054D000BA0144195509660977092AE08FE393E078
:1054E0000E94642067E972E08FE393E00E94021B50
:1054F00069E972E08FE393E00E94021B0E94312E63
:1055000024E630E040E050E00E94842F2B013C0173
:105510002AE0BC01A20177FE0DC06DE28FE393E0AB
:105520000E94A30844275527BA0144195509660962
:1055300077092AE08FE393E00E9464206FE972E02C
:105540008FE393E00E94021BE090D104F090D2041C
:105550008401960150E040E0B6018BEE94E00E9499
:10556000D916C114D10401F1E090CF04F090D00419
:1055700009A11AA19601A501B6018BEE94E00E9443
:10558000D916E090CF04F090D004A5014150510904
:1055900009A11AA101501109B601615071099B01BD
:1055A0008BEE94E00E94D91680919C0490919D040A
:1055B000499780F4E090D104F090D2040EE110E01D
:1055C00020E230E04AEC50E06BEE70E08BEE94E0CD
:1055D0000E94410FE090CF04F090D00405E110E06C
:1055E00028E130E04DE05FE06FEC70E085EF90E0A7
:1055F0000E94F11F80919C0490919D04B1010E9432
:105600000C316130710571F4E090D104F090D20456
:1056100028E130E04FEC50E065EF70E08BEE94E075
:105620000E94410FE090CF04F090D00400E210E01F
:1056300020E230E04DE85EE069EC70E08BEE90E057
:105640000E94F11F80919C0490919D04B1010E94E1
:105650000C316230710509F06DC0AEE0B1E0B0937D
:10566000F804A093F704E3EDF0E0F093FA04E0937C
:10567000F904E090D104F090D2040FE010E023E2AE
:1056800030E043ED50E06EE071E08BEE94E00E947C
:10569000410F40919E0450919F04E091A004F0912D
:1056A000A1046091A2047091A3042091A4043091FC
:1056B000A5048091A6049091A704A0919E04B091A6
:1056C0009F041A9708F469C2A091A004B091A104A4
:1056D0001A9708F462C2A091A204B091A3041A9789
:1056E00008F45BC2A091A404B091A5041A9708F431
:1056F00054C2A091A604B091A7041A9708F44DC211
:105700004E0F5F1F640F751F260F371F820F931FE9
:1057100065E070E00E940C31683EF3E07F0710F016
:1057200067EE73E0AB0170E060E02AE08BEE94E09E
:105730000E94642080919C0490919D04499780F47C
:105740008091C904882321F061E08CE30E943D0927
:105750008091C804882321F060E08EE30E943D0917
:1057600080919C0490919D04B1010E940C316230A3
:10577000710581F48091C904882321F060E08CE3F5
:105780000E943D098091C804882321F061E08EE3E6
:105790000E943D0961E070E080E090E00E943C0AD8
:1057A000A9A0BAA011CE83E194E09093090580935B
:1057B00008050CE010E05EEFE52E58E0F52EBDC9BF
:1057C00080E090E190930905809308056CE970E012
:1057D0008FEA9CE095C983E19EE090930905809350
:1057E000080580EE91E09093F2048093F10480E448
:1057F00091E09093F0048093EF0402E010E03CEB22
:10580000E32E38E0F32E99C983E094E090930905E4
:105810008093080580EE91E09093F2048093F10468
:1058200080E491E09093F0048093EF0403E010E0B3
:1058300029EBE22E28E0F22E80C983E194E09093D8
:1058400009058093080501E410E098E7E92E98E047
:10585000F92E73C983E194E19093090580930805BB
:1058600002E110E086E6E82E88E0F82E66C983E1C2
:1058700094E17AC883E194E1909309058093080547
:1058800080EE91E09093F2048093F10480E491E043
:105890009093F0048093EF040DE110E0A7E4EA2E6A
:1058A000A8E0FA2E4AC982E091E19093090580931D
:1058B00008056CEC70E083E89AE022C983E094E08C
:1058C000909309058093080580E991E09093F20494
:1058D0008093F10480EF90E09093F0048093EF04C4
:1058E0000EE110E0F9E2EF2EF8E0FF2E26C987E185
:1058F00094E1DAC883E194E0D7C883E096E1D4C8A4
:1059000083E194E0909309058093080580EE91E08F
:105910009093F2048093F10480E491E09093F0047A
:105920008093EF0405E410E056E7E52E57E0F52EEE
:1059300004C987E094E0E6CF83E194E09093090501
:105940008093080580EE91E09093F2048093F10437
:1059500080E491E09093F0048093EF040BE210E078
:1059600023E0E22E27E0F22EE8C880E090E1909359
:1059700009058093080560EC70E083E199E00E94DE
:105980002C0E80E991E09093F2048093F104BAC860
:10599000889A889888988898209100012CB122B321
:1059A0002CB120910001889ADCC9E82EF12CFE2C44
:1059B000EE24EE2408EFF02253E0EE0FFF1F5A957D
:1059C000E1F7E07EF770EE2AFF2A269526952695C8
:1059D000E22A6BCA90910001BCB1A2B3FCB1E09184
:1059E0000001889A889A889888988898E0900001A1
:1059F0002CB102B31CB180910001F12C35E0F5947B
:105A0000E7943A95E1F733E0E322FF2430E035955F
:105A10002795359527952C7033272E293F29E02E81
:105A2000F12CF594E79400E1E022FF24E22AF32A26
:105A300004E0109F9001112420723327E22AF32AF8
:105A400018E0819F90011124207C3327E22AF32A59
:105A5000889A892F90E025E0959587952A95E1F71A
:105A60008370B695B695BC708B2BA695A0718A2BCA
:105A700094E0F99F900111242072822BA8E0EA9F04
:105A8000F0011124E07C8E2BF82A43FF03C0FE2492
:105A9000EF24FE24672B09F408CAC701807E9770A3
:105AA0009701232F3327269526952695822B932B16
:105AB000FE2CEE24FF0CFF0CFF0CE82AF92AF5C996
:105AC00019A27DCB19A2AACB6A197B098301061BF7
:105AD000170B02CC6CEB74E0CE0101960E94E02023
